:1000000019C033C032C031C030C02FC02EC02DC087
:100010002CC02BC02AC029C028C027C026C025C09C
:1000200024C023C022C021C020C01FC01EC01DC0CC
:100030001CC01BC011241FBECFEFD4E0DEBFCDBF5C
:1000400011E0A0E0B1E0E0E4F7E002C005900D921D
:10005000AA32B107D9F721E0AAE2B1E001C01D92AE
:10006000AA33B207E1F76DD269C3CACFEF92FF920C
:100070000F931F93CF93DF937C01C0E0D0E0062F56
:10008000660F110BCE15DF05C4F480912C0188306A
:1000900014F010922C01E0912C010E2E000CFF0B9D
:1000A000E45FFE4F808185B980912C018F5F809342
:1000B0002C01C80121D12196E5CFDF91CF911F916D
:1000C0000F91FF90EF900895DF92EF92FF920F93C0
:1000D0001F93CF93DF937C01C0E0D0E087E0D82E60
:1000E000062F660F110BCE15DF05BCF480912C0195
:1000F00087FDD0922C01E0912C010E2E000CFF0BFD
:10010000E45FFE4F808185B980912C0181508093FE
:100110002C01C801F1D02196E6CFDF91CF911F913C
:100120000F91FF90EF90DF900895DF92EF92FF9292
:100130000F931F93CF93DF937C01C0E0D0E087E063
:10014000D82E062F660F110BCE15DF05BCF480915B
:100150002B0187FDD0922B01E0912B010E2E000C7C
:10016000FF0BEC5FFE4F808185B980912B018150A0
:1001700080932B01C801C0D02196E6CFDF91CF91AB
:100180001F910F91FF90EF90DF9008950F931F93B1
:10019000CF93C6E4082F880F110B80912A01843079
:1001A00014F010922A01E0912A010E2E000CFF0B90
:1001B000E050FF4F808188B980912A018F5F809342
:1001C0002A01C80199D0C15041F7CF911F910F91D9
:1001D00008950F931F93CF93DF93C6E4D3E0082FC6
:1001E000880F110B80912A0187FDD0932A01E0919D
:1001F0002A010E2E000CFF0BE050FF4F808188B9C2
:1002000080912A01815080932A01C80175D0C15084
:1002100049F7DF91CF911F910F910895AF92BF924F
:10022000DF92EF92FF920F931F93CF93DF9300D053
:10023000CDB7DEB78C01E12CF12C87E0D82EA22EB1
:10024000220FBB08E016F1060CF04AC0A0912C0169
:100250000A2E000CBB0BA45FBE4FE0912B010E2EAB
:10026000000CFF0BEC5FFE4F9C918081890F85B9DC
:10027000613049F480912C0187301CF010922C01E0
:100280000EC08F5F0AC061110AC080912C01181640
:100290001CF0D0922C0103C0815080932C0141307E
:1002A00049F480912B0187301CF010922B010EC075
:1002B0008F5F0AC041110AC080912B0118161CF0F3
:1002C000D0922B0103C0815080932B01C5014A833A
:1002D000698312D08FEFE81AF80A69814A81B2CF98
:1002E0000F900F90DF91CF911F910F91FF90EF90A2
:1002F000DF90BF90AF900895009741F0EFECF7E0EA
:100300003197F1F700C000000197F6CF089583E31D
:100310008093C4001092C50088E18093C10086E0FC
:100320008093C20008958091C00087FFFCCF809128
:10033000C60008959091C00095FFFCCF8093C60041
:100340000895CF93DF93EC018991882311F0F2DFB8
:10035000FBCFDF91CF910895AF92BF92DF92EF92E2
:10036000FF920F931F93CF93DF931F92CDB7DEB70A
:100370009C0101E0AA24A394B12CF90131964AE032
:10038000CF01B501B4D16A30710544F0C501489F71
:100390005001499FB00C11240F5FF2CF10E08AE0AA
:1003A000E82EF12C011789F0C901B501A0D1D82E92
:1003B00080E3860F9983BEDF2D2D9981392FC501EA
:1003C000B70195D15B011F5FEDCF80E00F90DF910A
:1003D000CF911F910F91FF90EF90DF90BF90AF9062
:1003E0000895CF93DF939FDF90E0C097D4E6D89F26
:1003F0009001D99F300D112430933701209336019D
:1004000092DF90E0C097CAE0C89F9001C99F300D6D
:1004100011248091360190913701820F931F9093A0
:100420003701809336017FDF90E0C097209136013D
:1004300030913701820F931F9093370180933601DB
:1004400072DF90E0C097D89F9001D99F300D1124A2
:10045000309335012093340166DF90E0C097C89F48
:100460009001C99F300D1124809134019091350184
:10047000820F931F909335018093340154DF90E0F5
:10048000C0972091340130913501820F931F9093D2
:1004900035018093340147DF80538093320180918E
:1004A00036019091370158DF83E291E04ADF809175
:1004B00034019091350150DF83E291E042DF809179
:1004C0003201805D37DF87E291E0DF91CF9139CF54
:1004D000CF93DF9328DF8053D4E68D9F802D1124A6
:1004E0008093330120DF90ED980FCAE080913301B3
:1004F0009C9F800D11248093330115DF90E0C097FD
:1005000090913301890F809333010DDF80538D9FCC
:10051000802D11248093380106DF90ED980F809193
:1005200038019C9F800D112480933801FCDE90E0FF
:10053000C09790913801890F80933801DF91CF9156
:1005400008958FEF84B98FE087B915B818B8DFDE4A
:1005500085E191E0F6DEBCDF8DE191E0F2DE809195
:100560003301082E000C990BF7DE83E291E0E9DEFF
:1005700080913801082E000C990BEEDE87E291E0A5
:10058000E0DEC1E015B818B82CDF809132019091FF
:100590001401891761F0823019F48091380119DE55
:1005A00080913201813019F480913801EFDD809122
:1005B00032018330C9F480913801E8DD2FEF44E344
:1005C0005CE0215040405040E1F700C000008091C5
:1005D0003801FFDD8FEF94E32CE081509040204004
:1005E000E1F700C00000E7CFA0912F01B0913001EA
:1005F000E0913601F091370160912D0170912E014B
:100600004091340150913501CB01841B950B97FF2C
:1006100003C09195819591099D012E1B3F0B37FFDA
:1006200003C0319521953109281B390B2F5F3F4FAE
:1006300023303105B8F4EA17FB071CF41092390196
:1006400002C0C0933901461757071CF410923101BC
:1006500002C0C0933101209133014091310160917A
:100660003901DCDD20912F0130913001809136017C
:100670009091370160912D0170912E0140913401CC
:10068000509135012817390719F064177507B9F427
:100690006417750779F0609133012817390724F43E
:1006A000821B930BE3DC0BC0A901481B590BCA0149
:1006B0000BDD05C06091330180E090E036DD809174
:1006C00034019091350190932E0180932D018091FA
:1006D0003601909137019093300180932F018091E2
:1006E00032018093140185E291E02BDE4BCF97FB22
:1006F000072E16F4009406D077FD08D00BD007FC27
:1007000005D03EF4909581959F4F08957095619521
:100710007F4F0895AA1BBB1B51E107C0AA1FBB1F37
:10072000A617B70710F0A61BB70B881F991F5A957D
:10073000A9F780959095BC01CD010895F894FFCF5D
:1007400003060C092030105040C080A002030105B0
:10075000040C080A0248616C6C6F0A0D0044454C99
:0A07600041593A20004F4B0A0D00EA
:00000001FF
